{
  "contractName": "RPS",
  "abi": [
    {
      "anonymous": false,
      "inputs": [
        {
          "indexed": false,
          "internalType": "address",
          "name": "p1",
          "type": "address"
        }
      ],
      "name": "player1_enrolled",
      "type": "event"
    },
    {
      "anonymous": false,
      "inputs": [
        {
          "indexed": false,
          "internalType": "address",
          "name": "p2",
          "type": "address"
        }
      ],
      "name": "player2_enrolled",
      "type": "event"
    },
    {
      "inputs": [],
      "name": "player1",
      "outputs": [
        {
          "internalType": "address",
          "name": "",
          "type": "address"
        }
      ],
      "stateMutability": "view",
      "type": "function"
    },
    {
      "inputs": [],
      "name": "player2",
      "outputs": [
        {
          "internalType": "address",
          "name": "",
          "type": "address"
        }
      ],
      "stateMutability": "view",
      "type": "function"
    },
    {
      "inputs": [],
      "name": "enroll",
      "outputs": [],
      "stateMutability": "payable",
      "type": "function"
    },
    {
      "inputs": [
        {
          "internalType": "string",
          "name": "move",
          "type": "string"
        },
        {
          "internalType": "string",
          "name": "secret_phrase",
          "type": "string"
        }
      ],
      "name": "commitMove",
      "outputs": [],
      "stateMutability": "nonpayable",
      "type": "function"
    },
    {
      "inputs": [
        {
          "internalType": "string",
          "name": "move",
          "type": "string"
        },
        {
          "internalType": "string",
          "name": "secret_phrase",
          "type": "string"
        }
      ],
      "name": "revealMove",
      "outputs": [],
      "stateMutability": "nonpayable",
      "type": "function"
    }
  ],
  "bytecode": "0x608060405234801561001057600080fd5b50611d64806100206000396000f3fe60806040526004361061004a5760003560e01c806359a5f12d1461004f5780636ebfdd701461007a57806375c8915e146100a3578063d30895e4146100cc578063e65f2a7e146100f7575b600080fd5b34801561005b57600080fd5b50610064610101565b6040516100719190611908565b60405180910390f35b34801561008657600080fd5b506100a1600480360381019061009c9190611665565b610127565b005b3480156100af57600080fd5b506100ca60048036038101906100c59190611665565b61039b565b005b3480156100d857600080fd5b506100e1610700565b6040516100ee9190611908565b60405180910390f35b6100ff610724565b005b600160009054906101000a900473ffffffffffffffffffffffffffffffffffffffff1681565b81604051602001610137906118b4565b604051602081830303815290604052805190602001208160405160200161015e9190611862565b6040516020818303038152906040528051906020012014806101c9575060405160200161018a906118f3565b60405160208183030381529060405280519060200120816040516020016101b19190611862565b60405160208183030381529060405280519060200120145b8061021d57506040516020016101de906118c9565b60405160208183030381529060405280519060200120816040516020016102059190611862565b60405160208183030381529060405280519060200120145b61022657600080fd5b60008054906101000a900473ffffffffffffffffffffffffffffffffffffffff1673ffffffffffffffffffffffffffffffffffffffff163373ffffffffffffffffffffffffffffffffffffffff1614156102bf576000801b6002541461028b57600080fd5b828260405160200161029e929190611879565b60405160208183030381529060405280519060200120600281905550610396565b600160009054906101000a900473ffffffffffffffffffffffffffffffffffffffff1673ffffffffffffffffffffffffffffffffffffffff163373ffffffffffffffffffffffffffffffffffffffff16141561035a576000801b6003541461032657600080fd5b8282604051602001610339929190611879565b60405160208183030381529060405280519060200120600381905550610395565b6040517f08c379a000000000000000000000000000000000000000000000000000000000815260040161038c90611923565b60405180910390fd5b5b505050565b6000801b600254141580156103b557506000801b60035414155b6103be57600080fd5b816040516020016103ce906118b4565b60405160208183030381529060405280519060200120816040516020016103f59190611862565b6040516020818303038152906040528051906020012014806104605750604051602001610421906118f3565b60405160208183030381529060405280519060200120816040516020016104489190611862565b60405160208183030381529060405280519060200120145b806104b45750604051602001610475906118c9565b604051602081830303815290604052805190602001208160405160200161049c9190611862565b60405160208183030381529060405280519060200120145b6104bd57600080fd5b60008054906101000a900473ffffffffffffffffffffffffffffffffffffffff1673ffffffffffffffffffffffffffffffffffffffff163373ffffffffffffffffffffffffffffffffffffffff161415610563578282604051602001610524929190611879565b604051602081830303815290604052805190602001206002541461054757600080fd5b826004908051906020019061055d92919061155a565b50610647565b600160009054906101000a900473ffffffffffffffffffffffffffffffffffffffff1673ffffffffffffffffffffffffffffffffffffffff163373ffffffffffffffffffffffffffffffffffffffff16141561060b5782826040516020016105cc929190611879565b60405160208183030381529060405280519060200120600354146105ef57600080fd5b826005908051906020019061060592919061155a565b50610646565b6040517f08c379a000000000000000000000000000000000000000000000000000000000815260040161063d90611923565b60405180910390fd5b5b604051602001610656906118de565b60405160208183030381529060405280519060200120600460405160200161067e919061189d565b60405160208183030381529060405280519060200120141580156106ed57506040516020016106ac906118de565b6040516020818303038152906040528051906020012060056040516020016106d4919061189d565b6040516020818303038152906040528051906020012014155b156106fb576106fa610974565b5b505050565b60008054906101000a900473ffffffffffffffffffffffffffffffffffffffff1681565b670de0b6b3a764000034101561073957600080fd5b600073ffffffffffffffffffffffffffffffffffffffff1660008054906101000a900473ffffffffffffffffffffffffffffffffffffffff1673ffffffffffffffffffffffffffffffffffffffff16141561083657336000806101000a81548173ffffffffffffffffffffffffffffffffffffffff021916908373ffffffffffffffffffffffffffffffffffffffff1602179055506702c68af0bb140000346107e29190611a7c565b600660008282546107f391906119f5565b925050819055507f1959df543df459ab820d0d0060fd443783c36ed27a346f9a20c6e293289c6352336040516108299190611908565b60405180910390a1610972565b600073ffffffffffffffffffffffffffffffffffffffff16600160009054906101000a900473ffffffffffffffffffffffffffffffffffffffff1673ffffffffffffffffffffffffffffffffffffffff1614156109365733600160006101000a81548173ffffffffffffffffffffffffffffffffffffffff021916908373ffffffffffffffffffffffffffffffffffffffff1602179055506702c68af0bb140000346108e29190611a7c565b600660008282546108f391906119f5565b925050819055507f5dd9eb989d55d6835a2d575dbd7827c7c37357d434fb6c1a69530c30623f84f3336040516109299190611908565b60405180910390a1610971565b6040517f08c379a000000000000000000000000000000000000000000000000000000000815260040161096890611943565b60405180910390fd5b5b565b6000801b6002541415801561098e57506000801b60035414155b61099757600080fd5b6040516020016109a6906118de565b6040516020818303038152906040528051906020012060046040516020016109ce919061189d565b6040516020818303038152906040528051906020012014156109ef57600080fd5b6040516020016109fe906118de565b604051602081830303815290604052805190602001206005604051602001610a26919061189d565b604051602081830303815290604052805190602001201415610a4757600080fd5b60048054610a5490611b2e565b80601f0160208091040260200160405190810160405280929190818152602001828054610a8090611b2e565b8015610acd5780601f10610aa257610100808354040283529160200191610acd565b820191906000526020600020905b815481529060010190602001808311610ab057829003601f168201915b5050505050604051602001610ae1906118b4565b6040516020818303038152906040528051906020012081604051602001610b089190611862565b604051602081830303815290604052805190602001201480610b735750604051602001610b34906118f3565b6040516020818303038152906040528051906020012081604051602001610b5b9190611862565b60405160208183030381529060405280519060200120145b80610bc75750604051602001610b88906118c9565b6040516020818303038152906040528051906020012081604051602001610baf9190611862565b60405160208183030381529060405280519060200120145b610bd057600080fd5b60058054610bdd90611b2e565b80601f0160208091040260200160405190810160405280929190818152602001828054610c0990611b2e565b8015610c565780601f10610c2b57610100808354040283529160200191610c56565b820191906000526020600020905b815481529060010190602001808311610c3957829003601f168201915b5050505050604051602001610c6a906118b4565b6040516020818303038152906040528051906020012081604051602001610c919190611862565b604051602081830303815290604052805190602001201480610cfc5750604051602001610cbd906118f3565b6040516020818303038152906040528051906020012081604051602001610ce49190611862565b60405160208183030381529060405280519060200120145b80610d505750604051602001610d11906118c9565b6040516020818303038152906040528051906020012081604051602001610d389190611862565b60405160208183030381529060405280519060200120145b610d5957600080fd5b604051602001610d68906118b4565b604051602081830303815290604052805190602001206004604051602001610d90919061189d565b60405160208183030381529060405280519060200120148015610dfd5750604051602001610dbd906118b4565b604051602081830303815290604052805190602001206005604051602001610de5919061189d565b60405160208183030381529060405280519060200120145b80610ea85750604051602001610e12906118f3565b604051602081830303815290604052805190602001206004604051602001610e3a919061189d565b60405160208183030381529060405280519060200120148015610ea75750604051602001610e67906118f3565b604051602081830303815290604052805190602001206005604051602001610e8f919061189d565b60405160208183030381529060405280519060200120145b5b80610f535750604051602001610ebd906118c9565b604051602081830303815290604052805190602001206004604051602001610ee5919061189d565b60405160208183030381529060405280519060200120148015610f525750604051602001610f12906118c9565b604051602081830303815290604052805190602001206005604051602001610f3a919061189d565b60405160208183030381529060405280519060200120145b5b1561106c5760008054906101000a900473ffffffffffffffffffffffffffffffffffffffff1673ffffffffffffffffffffffffffffffffffffffff166108fc6002600654610fa19190611a4b565b9081150290604051600060405180830381858888f19350505050158015610fcc573d6000803e3d6000fd5b506002600654610fdc9190611a4b565b60066000828254610fed9190611a7c565b92505081905550600160009054906101000a900473ffffffffffffffffffffffffffffffffffffffff1673ffffffffffffffffffffffffffffffffffffffff166108fc6006549081150290604051600060405180830381858888f1935050505015801561105e573d6000803e3d6000fd5b506000600681905550611556565b60405160200161107b906118b4565b6040516020818303038152906040528051906020012060046040516020016110a3919061189d565b6040516020818303038152906040528051906020012014801561111057506040516020016110d0906118c9565b6040516020818303038152906040528051906020012060056040516020016110f8919061189d565b60405160208183030381529060405280519060200120145b806111bb5750604051602001611125906118f3565b60405160208183030381529060405280519060200120600460405160200161114d919061189d565b604051602081830303815290604052805190602001201480156111ba575060405160200161117a906118b4565b6040516020818303038152906040528051906020012060056040516020016111a2919061189d565b60405160208183030381529060405280519060200120145b5b8061126657506040516020016111d0906118c9565b6040516020818303038152906040528051906020012060046040516020016111f8919061189d565b604051602081830303815290604052805190602001201480156112655750604051602001611225906118f3565b60405160208183030381529060405280519060200120600560405160200161124d919061189d565b60405160208183030381529060405280519060200120145b5b156112e15760008054906101000a900473ffffffffffffffffffffffffffffffffffffffff1673ffffffffffffffffffffffffffffffffffffffff166108fc6006549081150290604051600060405180830381858888f193505050501580156112d3573d6000803e3d6000fd5b506000600681905550611555565b6040516020016112f0906118f3565b604051602081830303815290604052805190602001206004604051602001611318919061189d565b604051602081830303815290604052805190602001201480156113855750604051602001611345906118c9565b60405160208183030381529060405280519060200120600560405160200161136d919061189d565b60405160208183030381529060405280519060200120145b80611430575060405160200161139a906118c9565b6040516020818303038152906040528051906020012060046040516020016113c2919061189d565b6040516020818303038152906040528051906020012014801561142f57506040516020016113ef906118f3565b604051602081830303815290604052805190602001206005604051602001611417919061189d565b60405160208183030381529060405280519060200120145b5b806114db5750604051602001611445906118b4565b60405160208183030381529060405280519060200120600460405160200161146d919061189d565b604051602081830303815290604052805190602001201480156114da575060405160200161149a906118f3565b6040516020818303038152906040528051906020012060056040516020016114c2919061189d565b60405160208183030381529060405280519060200120145b5b1561155457600160009054906101000a900473ffffffffffffffffffffffffffffffffffffffff1673ffffffffffffffffffffffffffffffffffffffff166108fc6006549081150290604051600060405180830381858888f1935050505015801561154a573d6000803e3d6000fd5b5060006006819055505b5b5b5050565b82805461156690611b2e565b90600052602060002090601f01602090048101928261158857600085556115cf565b82601f106115a157805160ff19168380011785556115cf565b828001600101855582156115cf579182015b828111156115ce5782518255916020019190600101906115b3565b5b5090506115dc91906115e0565b5090565b5b808211156115f95760008160009055506001016115e1565b5090565b600061161061160b84611988565b611963565b90508281526020810184848401111561162857600080fd5b611633848285611aec565b509392505050565b600082601f83011261164c57600080fd5b813561165c8482602086016115fd565b91505092915050565b6000806040838503121561167857600080fd5b600083013567ffffffffffffffff81111561169257600080fd5b61169e8582860161163b565b925050602083013567ffffffffffffffff8111156116bb57600080fd5b6116c78582860161163b565b9150509250929050565b6116da81611ab0565b82525050565b60006116eb826119ce565b6116f581856119ea565b9350611705818560208601611afb565b80840191505092915050565b6000815461171e81611b2e565b61172881866119ea565b94506001821660008114611743576001811461175457611787565b60ff19831686528186019350611787565b61175d856119b9565b60005b8381101561177f57815481890152600182019150602081019050611760565b838801955050505b50505092915050565b600061179d600d836119d9565b91506117a882611c5e565b602082019050919050565b60006117c06020836119d9565b91506117cb82611c87565b602082019050919050565b60006117e36004836119ea565b91506117ee82611cb0565b600482019050919050565b60006118066008836119ea565b915061181182611cd9565b600882019050919050565b60006118296000836119ea565b915061183482611d02565b600082019050919050565b600061184c6005836119ea565b915061185782611d05565b600582019050919050565b600061186e82846116e0565b915081905092915050565b600061188582856116e0565b915061189182846116e0565b91508190509392505050565b60006118a98284611711565b915081905092915050565b60006118bf826117d6565b9150819050919050565b60006118d4826117f9565b9150819050919050565b60006118e98261181c565b9150819050919050565b60006118fe8261183f565b9150819050919050565b600060208201905061191d60008301846116d1565b92915050565b6000602082019050818103600083015261193c81611790565b9050919050565b6000602082019050818103600083015261195c816117b3565b9050919050565b600061196d61197e565b90506119798282611b60565b919050565b6000604051905090565b600067ffffffffffffffff8211156119a3576119a2611c1e565b5b6119ac82611c4d565b9050602081019050919050565b60008190508160005260206000209050919050565b600081519050919050565b600082825260208201905092915050565b600081905092915050565b6000611a0082611ae2565b9150611a0b83611ae2565b9250827fffffffffffffffffffffffffffffffffffffffffffffffffffffffffffffffff03821115611a4057611a3f611b91565b5b828201905092915050565b6000611a5682611ae2565b9150611a6183611ae2565b925082611a7157611a70611bc0565b5b828204905092915050565b6000611a8782611ae2565b9150611a9283611ae2565b925082821015611aa557611aa4611b91565b5b828203905092915050565b6000611abb82611ac2565b9050919050565b600073ffffffffffffffffffffffffffffffffffffffff82169050919050565b6000819050919050565b82818337600083830152505050565b60005b83811015611b19578082015181840152602081019050611afe565b83811115611b28576000848401525b50505050565b60006002820490506001821680611b4657607f821691505b60208210811415611b5a57611b59611bef565b5b50919050565b611b6982611c4d565b810181811067ffffffffffffffff82111715611b8857611b87611c1e565b5b80604052505050565b7f4e487b7100000000000000000000000000000000000000000000000000000000600052601160045260246000fd5b7f4e487b7100000000000000000000000000000000000000000000000000000000600052601260045260246000fd5b7f4e487b7100000000000000000000000000000000000000000000000000000000600052602260045260246000fd5b7f4e487b7100000000000000000000000000000000000000000000000000000000600052604160045260246000fd5b6000601f19601f8301169050919050565b7f57726f6e67206164647265737300000000000000000000000000000000000000600082015250565b7f54776f20706c61796572732061726520616c726561647920656e726f6c6c6564600082015250565b7f524f434b00000000000000000000000000000000000000000000000000000000600082015250565b7f53434953534f5253000000000000000000000000000000000000000000000000600082015250565b50565b7f504150455200000000000000000000000000000000000000000000000000000060008201525056fea264697066735822122038bf172901223ba4001d5732257348d1d75e919da5f6de2bdc04b3a147a25a1e64736f6c63430008030033",
  "immutableReferences": {},
  "source": "// SPDX-License-Identifier: MIT\n\npragma solidity ^0.8.3;\n\ncontract RPS {\n    address public player1;\n    address public player2;\n    bytes32 hash1;\n    bytes32 hash2;\n    string player1_move;\n    string player2_move;\n    uint stake;\n\n    event player1_enrolled(address p1);\n    event player2_enrolled(address p2);\n\n    modifier both_players_committed_moves{\n        require((hash1 != bytes32(0)) && (hash2 != bytes32(0)));\n        _;\n    }\n\n    modifier both_players_revealed_moves{\n        require(keccak256(abi.encodePacked(player1_move)) != keccak256(abi.encodePacked(\"\")));\n        require(keccak256(abi.encodePacked(player2_move)) != keccak256(abi.encodePacked(\"\")));\n        _;\n    }\n\n    modifier valid_move(string memory move){\n        require( \n            (keccak256(abi.encodePacked(move)) == keccak256(abi.encodePacked(\"ROCK\"))) ||\n            (keccak256(abi.encodePacked(move)) == keccak256(abi.encodePacked(\"PAPER\"))) ||\n            (keccak256(abi.encodePacked(move)) == keccak256(abi.encodePacked(\"SCISSORS\")))\n        );\n        _;\n       \n    }\n\n    function enroll() public payable{\n        require(msg.value >= 1 ether);\n        if(player1 == address(0)){\n            player1 = msg.sender;\n            stake += msg.value - 0.2 ether; // 0.2 ether are given to the contract for each enrolled player\n            emit player1_enrolled(msg.sender);\n\n        }else if(player2 == address(0)){\n            player2 = msg.sender;\n            stake += msg.value - 0.2 ether; // 0.2 ether are given to the contract for each enrolled player\n            emit player2_enrolled(msg.sender);\n\n        }else{\n            revert(\"Two players are already enrolled\");\n        }\n    }\n\n    function commitMove(string memory move, string memory secret_phrase) public valid_move(move) {\n        if(msg.sender == player1){\n            require(hash1 == bytes32(0)); // i.e. didn't commit before\n            hash1 = keccak256(abi.encodePacked(move,secret_phrase));\n            \n\n        }else if(msg.sender == player2){\n            require(hash2 == bytes32(0)); // i.e. didn't commit before\n            hash2 = keccak256(abi.encodePacked(move,secret_phrase));\n\n\n        }else{\n            revert(\"Wrong address\");\n        }\n    }\n\n    function revealMove(string memory move, string memory secret_phrase) public both_players_committed_moves() valid_move(move) {\n        if(msg.sender == player1){\n            require(hash1 == keccak256(abi.encodePacked(move,secret_phrase)));\n            player1_move = move;\n            \n\n        }else if(msg.sender == player2){\n            require(hash2 == keccak256(abi.encodePacked(move,secret_phrase)));\n            player2_move = move;\n\n\n        }else{\n            revert(\"Wrong address\");\n        }\n\n        // if both players revealed their moves\n        if(\n            (keccak256(abi.encodePacked(player1_move)) != keccak256(abi.encodePacked(\"\"))) &&\n            (keccak256(abi.encodePacked(player2_move)) != keccak256(abi.encodePacked(\"\")))\n        ){\n\n            reward_players();\n\n        }\n\n    }\n\n    function reward_players() private both_players_committed_moves() both_players_revealed_moves() valid_move(player1_move) valid_move(player2_move){\n        if( \n            ((keccak256(abi.encodePacked(player1_move)) == keccak256(abi.encodePacked(\"ROCK\"))) &&\n            (keccak256(abi.encodePacked(player2_move)) == keccak256(abi.encodePacked(\"ROCK\")))) ||\n\n            ((keccak256(abi.encodePacked(player1_move)) == keccak256(abi.encodePacked(\"PAPER\"))) &&\n            (keccak256(abi.encodePacked(player2_move)) == keccak256(abi.encodePacked(\"PAPER\")))) ||\n\n            ((keccak256(abi.encodePacked(player1_move)) == keccak256(abi.encodePacked(\"SCISSORS\"))) &&\n            (keccak256(abi.encodePacked(player2_move)) == keccak256(abi.encodePacked(\"SCISSORS\"))))\n        ){ // DRAW\n            payable(player1).transfer((stake/2));\n            stake -= (stake/2);\n            payable(player2).transfer(stake);\n            stake = 0;\n\n\n        }else if(\n            ((keccak256(abi.encodePacked(player1_move)) == keccak256(abi.encodePacked(\"ROCK\"))) &&\n            (keccak256(abi.encodePacked(player2_move)) == keccak256(abi.encodePacked(\"SCISSORS\")))) ||\n\n            ((keccak256(abi.encodePacked(player1_move)) == keccak256(abi.encodePacked(\"PAPER\"))) &&\n            (keccak256(abi.encodePacked(player2_move)) == keccak256(abi.encodePacked(\"ROCK\")))) ||\n\n            ((keccak256(abi.encodePacked(player1_move)) == keccak256(abi.encodePacked(\"SCISSORS\"))) &&\n            (keccak256(abi.encodePacked(player2_move)) == keccak256(abi.encodePacked(\"PAPER\")))) \n\n\n\n        ){ // Player1 wins\n            payable(player1).transfer(stake);\n            stake = 0;\n\n        }else if(\n            ((keccak256(abi.encodePacked(player1_move))== keccak256(abi.encodePacked(\"PAPER\"))) &&\n            (keccak256(abi.encodePacked(player2_move)) == keccak256(abi.encodePacked(\"SCISSORS\")))) ||\n\n            \n            ((keccak256(abi.encodePacked(player1_move)) == keccak256(abi.encodePacked(\"SCISSORS\"))) &&\n            (keccak256(abi.encodePacked(player2_move)) == keccak256(abi.encodePacked(\"PAPER\")))) ||\n\n            ((keccak256(abi.encodePacked(player1_move)) == keccak256(abi.encodePacked(\"ROCK\"))) &&\n            (keccak256(abi.encodePacked(player2_move)) == keccak256(abi.encodePacked(\"PAPER\")))) \n\n        ){ // Player2 wins\n            payable(player2).transfer(stake);\n            stake = 0;\n        }\n\n    }\n\n\n\n\n\n\n\n\n\n}",
  "sourcePath": "/home/mnaga/Downloads/blockchain/slingshot/contracts/RockPaperScissors.sol",
  "compiler": {
    "name": "solc",
    "version": "0.8.3+commit.8d00100c.Emscripten.clang"
  },
  "schemaVersion": "3.4.3",
  "updatedAt": "2021-12-10T00:55:09.946Z",
  "devdoc": {
    "kind": "dev",
    "methods": {},
    "version": 1
  },
  "userdoc": {
    "kind": "user",
    "methods": {},
    "version": 1
  }
}